:020000040800F2
:1000000000040020C9000008D3000008D500000843
:10001000D7000008D9000008DB000008000000003D
:10002000000000000000000000000000DD000008EB
:10003000DF00000800000000E1000008E300000805
:1000400080B485B000AF78600023FB600DE0002332
:10005000BB6002E0BB680133BB60BB6842F6FE22B6
:100060009342F7D9FB680133FB60FA687B689A42D8
:10007000EDD300BF00BF1437BD4680BC704780B5CC
:1000800000AF0E4B1B680D4A43F0100313600C4B7E
:100090001B680B4A23F470031360094B1B68084A62
:1000A00043F400131360074B1B68064A83F40053A4
:1000B0001360C820FFF7C4FFF5E700BF1810024027
:1000C000041001400C10014006488546FFF7D7FF99
:1000D000FEE7FEE7FEE7FEE7FEE7FEE7FEE7FEE7F8
:0800E000FEE7FEE7000400202A
:1000E8000000000000000000000000000000000008
:1000F80000000000000000000000000000000000F8
:1001080000000000000000000000000000000000E7
:1001180000000000000000000000000000000000D7
:04000005080000C926
:00000001FF
