:020000040800F2
:100000000004002019010008230100082501000850
:1000100027010008290100082B010008000000004A
:100020000000000000000000000000002D0100089A
:100030002F01000800000000310100083301000812
:1000400080B485B000AF78600023FB6002E0FB68FD
:100050000133FB607B684FF47A7203FB02F2FB68AA
:100060009A42F4D800BF00BF1437BD4680BC704729
:1000700080B582B000AF224B1B68214A43F01803C1
:100080001360204B1B681F4A23F0F00313601D4BC5
:100090001B681C4A43F0800313601B4B02221A604A
:1000A0001A4B1B68194A23F470031360174B1B6823
:1000B000164A43F400131360154B1B68144A23F4CB
:1000C0000053136001237B60124B1B6803F0020393
:1000D000002B14BF01230023DBB23B603B68002BE5
:1000E0000BD17B68012B08D1094B1B68084A83F4AC
:1000F000005313606420FFF7A3FF3B687B60E3E7D6
:1001000018100240000C0140100C01400410014086
:100110000C100140080C014006488546FFF7A8FF77
:10012000FEE7FEE7FEE7FEE7FEE7FEE7FEE7FEE7A7
:08013000FEE7FEE700040020D9
:1001380000000000000000000000000000000000B7
:1001480000000000000000000000000000000000A7
:100158000000000000000000000000000000000097
:100168000000000000000000000000000000000087
:0400000508000119D5
:00000001FF
